:020000020000FC
:100000000FEF0DBF18E01EBF3F065B4F666D7D070B
:100010007F6F777C399E7971D5E003E008B900E005
:1000200007B90FE304B90CEF0AB90E94530040E08E
:10003000E0E006B100FF32C016B111FF31C0A5B338
:10004000A130B9F74F3071F1A4E6A6BDA89AE395A7
:10005000E43679F7EE274395942F990F990F9BB9C2
:10006000F0E0E8E0ED0F549157FD5F9A57FF479895
:1000700055B9D417F1F65E9A742FD717D1F640E030
:10008000D8CFA5B3A130E9F7AAE0A6BDA89AE39519
:10009000EA30B9F7EE27309BF4CFCBCFD395F1CF31
:1000A000DA95EFCF4FEFB5E0B5BDB4E6B6BD089534
:00000001FF
